{
  "contractName": "Ballot",
  "abi": [
    {
      "inputs": [],
      "stateMutability": "nonpayable",
      "type": "constructor"
    },
    {
      "inputs": [
        {
          "internalType": "uint256",
          "name": "proposal",
          "type": "uint256"
        }
      ],
      "name": "vote",
      "outputs": [
        {
          "internalType": "uint256",
          "name": "",
          "type": "uint256"
        }
      ],
      "stateMutability": "payable",
      "type": "function",
      "payable": true
    },
    {
      "inputs": [],
      "name": "winningProposal",
      "outputs": [
        {
          "internalType": "uint256",
          "name": "",
          "type": "uint256"
        }
      ],
      "stateMutability": "view",
      "type": "function",
      "constant": true
    },
    {
      "inputs": [],
      "name": "resultBallot",
      "outputs": [
        {
          "internalType": "uint256[]",
          "name": "",
          "type": "uint256[]"
        }
      ],
      "stateMutability": "view",
      "type": "function",
      "constant": true
    }
  ],
  "bytecode": "0x608060405234801561001057600080fd5b50600567ffffffffffffffff81111561002c5761002b6100e0565b5b60405190808252806020026020018201604052801561005a5781602001602082028036833780820191505090505b5060009080519060200190610070929190610076565b5061010f565b8280548282559060005260206000209081019282156100b2579160200282015b828111156100b1578251825591602001919060010190610096565b5b5090506100bf91906100c3565b5090565b5b808211156100dc5760008160009055506001016100c4565b5090565b7f4e487b7100000000000000000000000000000000000000000000000000000000600052604160045260246000fd5b6104e68061011e6000396000f3fe6080604052600436106100345760003560e01c80630121b93f14610039578063609ff1bd14610069578063dacd101314610094575b600080fd5b610053600480360381019061004e91906102d2565b6100bf565b604051610060919061030e565b60405180910390f35b34801561007557600080fd5b5061007e6101c0565b60405161008b919061030e565b60405180910390f35b3480156100a057600080fd5b506100a961023f565b6040516100b691906103e7565b60405180910390f35b600080600160003373ffffffffffffffffffffffffffffffffffffffff1673ffffffffffffffffffffffffffffffffffffffff16815260200190815260200160002060009054906101000a900460ff16905080158015610123575060008054905083105b61012c57600080fd5b60018060003373ffffffffffffffffffffffffffffffffffffffff1673ffffffffffffffffffffffffffffffffffffffff16815260200190815260200160002060006101000a81548160ff0219169083151502179055506000838154811061019757610196610409565b5b9060005260206000200160008154809291906101b290610467565b919050555082915050919050565b600080600090506000805b6000805490508110156102365782600082815481106101ed576101ec610409565b5b90600052602060002001541115610223576000818154811061021257610211610409565b5b906000526020600020015492508091505b808061022e90610467565b9150506101cb565b50809250505090565b6060600080548060200260200160405190810160405280929190818152602001828054801561028d57602002820191906000526020600020905b815481526020019060010190808311610279575b5050505050905090565b600080fd5b6000819050919050565b6102af8161029c565b81146102ba57600080fd5b50565b6000813590506102cc816102a6565b92915050565b6000602082840312156102e8576102e7610297565b5b60006102f6848285016102bd565b91505092915050565b6103088161029c565b82525050565b600060208201905061032360008301846102ff565b92915050565b600081519050919050565b600082825260208201905092915050565b6000819050602082019050919050565b61035e8161029c565b82525050565b60006103708383610355565b60208301905092915050565b6000602082019050919050565b600061039482610329565b61039e8185610334565b93506103a983610345565b8060005b838110156103da5781516103c18882610364565b97506103cc8361037c565b9250506001810190506103ad565b5085935050505092915050565b600060208201905081810360008301526104018184610389565b905092915050565b7f4e487b7100000000000000000000000000000000000000000000000000000000600052603260045260246000fd5b7f4e487b7100000000000000000000000000000000000000000000000000000000600052601160045260246000fd5b60006104728261029c565b91507fffffffffffffffffffffffffffffffffffffffffffffffffffffffffffffffff8214156104a5576104a4610438565b5b60018201905091905056fea2646970667358221220a85a16766f9e7a908a3cc16eb804e0f55d6b4e809fa1f7c5bc73b9a09211507c64736f6c634300080b0033",
  "immutableReferences": {},
  "source": "// SPDX-License-Identifier: GPL-3.0\n\npragma solidity >=0.7.0 <0.9.0;\n\ncontract Ballot {\n\n    uint[] proposals;\n    mapping(address => bool) voters;\n\n    constructor() {\n        proposals = new uint[] (5);\n    }\n\n    function vote(uint proposal) public payable returns (uint) {\n        bool hasVoted = voters[msg.sender];\n        require(!hasVoted && proposal < proposals.length);\n        voters[msg.sender] = true;\n        proposals[proposal]++;\n        return proposal;\n    }\n\n    function winningProposal() public view returns (uint) {\n        uint winningVoteCount = 0;\n        uint _winningProposal = 0;\n        for (uint prop = 0; prop < proposals.length; prop++) {\n            if (proposals[prop] > winningVoteCount) {\n                winningVoteCount = proposals[prop];\n                _winningProposal = prop;\n            }\n        }\n        return _winningProposal;\n    }\n\n    function resultBallot() public view returns (uint[] memory) {\n        return proposals;\n    }\n}\n",
  "sourcePath": "/Users/nikitafilippov/WebstormProjects/web3_ballot/contracts/Ballot.sol",
  "compiler": {
    "name": "solc",
    "version": "0.8.11+commit.d7f03943.Emscripten.clang"
  },
  "schemaVersion": "3.4.4",
  "updatedAt": "2022-02-18T19:56:19.294Z",
  "networkType": "ethereum",
  "devdoc": {
    "kind": "dev",
    "methods": {},
    "version": 1
  },
  "userdoc": {
    "kind": "user",
    "methods": {},
    "version": 1
  }
}